{"contracts/Treasury.sol":{"Treasury":{"abi":[{"inputs":[{"internalType":"address","name":"_payoutToken","type":"address"},{"internalType":"address","name":"_tstDistributor","type":"address"},{"internalType":"address","name":"_forestMgmt","type":"address"},{"internalType":"address","name":"_ops","type":"address"},{"internalType":"address","name":"_insurance","type":"address"},{"components":[{"internalType":"uint16","name":"toTSTHoldersBps","type":"uint16"},{"internalType":"uint16","name":"toForestMgmtBps","type":"uint16"},{"internalType":"uint16","name":"toOpsBps","type":"uint16"},{"internalType":"uint16","name":"toInsuranceBps","type":"uint16"}],"internalType":"struct Treasury.Shares","name":"_shares","type":"tuple"}],"stateMutability":"nonpayable","type":"constructor"},{"inputs":[],"name":"InvalidShares","type":"error"},{"inputs":[{"internalType":"address","name":"owner","type":"address"}],"name":"OwnableInvalidOwner","type":"error"},{"inputs":[{"internalType":"address","name":"account","type":"address"}],"name":"OwnableUnauthorizedAccount","type":"error"},{"inputs":[],"name":"ZeroAddress","type":"error"},{"anonymous":false,"inputs":[{"indexed":false,"internalType":"uint256","name":"amount","type":"uint256"}],"name":"Distributed","type":"event"},{"anonymous":false,"inputs":[{"indexed":true,"internalType":"address","name":"previousOwner","type":"address"},{"indexed":true,"internalType":"address","name":"newOwner","type":"address"}],"name":"OwnershipTransferred","type":"event"},{"inputs":[],"name":"distribute","outputs":[],"stateMutability":"nonpayable","type":"function"},{"inputs":[],"name":"forestMgmt","outputs":[{"internalType":"address","name":"","type":"address"}],"stateMutability":"view","type":"function"},{"inputs":[],"name":"insurance","outputs":[{"internalType":"address","name":"","type":"address"}],"stateMutability":"view","type":"function"},{"inputs":[],"name":"ops","outputs":[{"internalType":"address","name":"","type":"address"}],"stateMutability":"view","type":"function"},{"inputs":[],"name":"owner","outputs":[{"internalType":"address","name":"","type":"address"}],"stateMutability":"view","type":"function"},{"inputs":[],"name":"payoutToken","outputs":[{"internalType":"contract IERC20","name":"","type":"address"}],"stateMutability":"view","type":"function"},{"inputs":[],"name":"renounceOwnership","outputs":[],"stateMutability":"nonpayable","type":"function"},{"inputs":[{"components":[{"internalType":"uint16","name":"toTSTHoldersBps","type":"uint16"},{"internalType":"uint16","name":"toForestMgmtBps","type":"uint16"},{"internalType":"uint16","name":"toOpsBps","type":"uint16"},{"internalType":"uint16","name":"toInsuranceBps","type":"uint16"}],"internalType":"struct Treasury.Shares","name":"s","type":"tuple"}],"name":"setShares","outputs":[],"stateMutability":"nonpayable","type":"function"},{"inputs":[{"internalType":"address","name":"_d","type":"address"}],"name":"setTstDistributor","outputs":[],"stateMutability":"nonpayable","type":"function"},{"inputs":[],"name":"shares","outputs":[{"internalType":"uint16","name":"toTSTHoldersBps","type":"uint16"},{"internalType":"uint16","name":"toForestMgmtBps","type":"uint16"},{"internalType":"uint16","name":"toOpsBps","type":"uint16"},{"internalType":"uint16","name":"toInsuranceBps","type":"uint16"}],"stateMutability":"view","type":"function"},{"inputs":[{"internalType":"address","name":"newOwner","type":"address"}],"name":"transferOwnership","outputs":[],"stateMutability":"nonpayable","type":"function"},{"inputs":[],"name":"tstDistributor","outputs":[{"internalType":"address","name":"","type":"address"}],"stateMutability":"view","type":"function"}],"evm":{"bytecode":{"linkReferences":{},"object":"60a06040523480156200001157600080fd5b5060405162000e0138038062000e0183398101604081905262000034916200028c565b33806200005b57604051631e4fbdf760e01b81526000600482015260240160405180910390fd5b62000066816200020c565b506001600160a01b03861615806200008557506001600160a01b038516155b806200009857506001600160a01b038416155b80620000ab57506001600160a01b038316155b80620000be57506001600160a01b038216155b15620000dd5760405163d92e233d60e01b815260040160405180910390fd5b806060015161ffff16816040015161ffff16826020015161ffff16836000015161ffff166200010d919062000395565b62000119919062000395565b62000125919062000395565b612710146200014757604051636edcc52360e01b815260040160405180910390fd5b6001600160a01b03958616608052600180549587166001600160a01b03199687161790556002805494871694861694909417909355600380549286169285169290921790915560048054919094169216919091179091558051600580546020840151604085015160609095015161ffff90811666010000000000000261ffff60301b19968216640100000000029690961663ffffffff60201b19928216620100000263ffffffff199094169190951617919091171691909117919091179055620003bd565b600080546001600160a01b038381166001600160a01b0319831681178455604051919092169283917f8be0079c531659141344cd1fd0a4f28419497f9722a3daafe3b4186f6b6457e09190a35050565b80516001600160a01b03811681146200027457600080fd5b919050565b805161ffff811681146200027457600080fd5b600080600080600080868803610120811215620002a857600080fd5b620002b3886200025c565b9650620002c3602089016200025c565b9550620002d3604089016200025c565b9450620002e3606089016200025c565b9350620002f3608089016200025c565b92506080609f19820112156200030857600080fd5b50604051608081016001600160401b03811182821017156200033a57634e487b7160e01b600052604160045260246000fd5b6040526200034b60a0890162000279565b81526200035b60c0890162000279565b60208201526200036e60e0890162000279565b604082015262000382610100890162000279565b6060820152809150509295509295509295565b80820180821115620003b757634e487b7160e01b600052601160045260246000fd5b92915050565b608051610a05620003fc6000396000818161014c015281816102d501528181610454015281816104f30152818161059401526106380152610a056000f3fe608060405234801561001057600080fd5b50600436106100b45760003560e01c80639a190dc9116100715780639a190dc91461019c578063e16fca9f146101af578063e4fc6b6d146101c2578063e70abe92146101ca578063f2fde38b146101dd578063fa117979146101f057600080fd5b806303314efa146100b95780633959c2981461011c5780634efa82b614610147578063715018a61461016e57806389cf3204146101785780638da5cb5b1461018b575b600080fd5b6005546100e99061ffff808216916201000081048216916401000000008204811691660100000000000090041684565b6040805161ffff958616815293851660208501529184169183019190915290911660608201526080015b60405180910390f35b60015461012f906001600160a01b031681565b6040516001600160a01b039091168152602001610113565b61012f7f000000000000000000000000000000000000000000000000000000000000000081565b610176610203565b005b60045461012f906001600160a01b031681565b6000546001600160a01b031661012f565b6101766101aa3660046107f4565b610217565b60025461012f906001600160a01b031681565b6101766102bd565b60035461012f906001600160a01b031681565b6101766101eb36600461080c565b6106e8565b6101766101fe36600461080c565b610726565b61020b610777565b61021560006107a4565b565b61021f610777565b61022f608082016060830161084c565b61ffff16610243606083016040840161084c565b61ffff16610257604084016020850161084c565b61ffff16610268602085018561084c565b61ffff16610276919061087f565b610280919061087f565b61028a919061087f565b612710146102ab57604051636edcc52360e01b815260040160405180910390fd5b8060056102b88282610898565b505050565b6040516370a0823160e01b81523060048201526000907f00000000000000000000000000000000000000000000000000000000000000006001600160a01b0316906370a0823190602401602060405180830381865afa158015610324573d6000803e3d6000fd5b505050506040513d601f19601f820116820180604052508101906103489190610948565b90506000811161038a5760405162461bcd60e51b81526020600482015260086024820152674e6f2066756e647360c01b60448201526064015b60405180910390fd5b600554600090612710906103a29061ffff1684610961565b6103ac9190610978565b600554909150600090612710906103cd9062010000900461ffff1685610961565b6103d79190610978565b600554909150600090612710906103fa90640100000000900461ffff1686610961565b6104049190610978565b905060008183610414868861099a565b61041e919061099a565b610428919061099a565b60015460405163a9059cbb60e01b81526001600160a01b039182166004820152602481018790529192507f0000000000000000000000000000000000000000000000000000000000000000169063a9059cbb906044016020604051808303816000875af115801561049d573d6000803e3d6000fd5b505050506040513d601f19601f820116820180604052508101906104c191906109ad565b6104ca57600080fd5b60025460405163a9059cbb60e01b81526001600160a01b039182166004820152602481018590527f00000000000000000000000000000000000000000000000000000000000000009091169063a9059cbb906044016020604051808303816000875af115801561053e573d6000803e3d6000fd5b505050506040513d601f19601f8201168201806040525081019061056291906109ad565b61056b57600080fd5b60035460405163a9059cbb60e01b81526001600160a01b039182166004820152602481018490527f00000000000000000000000000000000000000000000000000000000000000009091169063a9059cbb906044016020604051808303816000875af11580156105df573d6000803e3d6000fd5b505050506040513d601f19601f8201168201806040525081019061060391906109ad565b61060c57600080fd5b6004805460405163a9059cbb60e01b81526001600160a01b0391821692810192909252602482018390527f0000000000000000000000000000000000000000000000000000000000000000169063a9059cbb906044016020604051808303816000875af1158015610681573d6000803e3d6000fd5b505050506040513d601f19601f820116820180604052508101906106a591906109ad565b6106ae57600080fd5b6040518581527fddc9c30275a04c48091f24199f9c405765de34d979d6847f5b9798a57232d2e59060200160405180910390a15050505050565b6106f0610777565b6001600160a01b03811661071a57604051631e4fbdf760e01b815260006004820152602401610381565b610723816107a4565b50565b61072e610777565b6001600160a01b0381166107555760405163d92e233d60e01b815260040160405180910390fd5b600180546001600160a01b0319166001600160a01b0392909216919091179055565b6000546001600160a01b031633146102155760405163118cdaa760e01b8152336004820152602401610381565b600080546001600160a01b038381166001600160a01b0319831681178455604051919092169283917f8be0079c531659141344cd1fd0a4f28419497f9722a3daafe3b4186f6b6457e09190a35050565b60006080828403121561080657600080fd5b50919050565b60006020828403121561081e57600080fd5b81356001600160a01b038116811461083557600080fd5b9392505050565b61ffff8116811461072357600080fd5b60006020828403121561085e57600080fd5b81356108358161083c565b634e487b7160e01b600052601160045260246000fd5b8082018082111561089257610892610869565b92915050565b81356108a38161083c565b61ffff8116905081548161ffff19821617835560208401356108c48161083c565b63ffff00008160101b169050808363ffffffff1984161717845560408501356108ec8161083c565b65ffff000000008160201b1690508365ffffffffffff198416179350808483171785556060860135925061091f8361083c565b67ffff0000000000001993909316179190911760309190911b67ffff0000000000001617905550565b60006020828403121561095a57600080fd5b5051919050565b808202811582820484141761089257610892610869565b60008261099557634e487b7160e01b600052601260045260246000fd5b500490565b8181038181111561089257610892610869565b6000602082840312156109bf57600080fd5b8151801515811461083557600080fdfea26469706673582212203d5132c71e03607fbac92523600aa1239ca952782aac3aa4527f56137d6d0d1364736f6c63430008180033","opcodes":"PUSH1 0xA0 PUSH1 0x40 MSTORE CALLVALUE DUP1 ISZERO PUSH3 0x11 JUMPI PUSH1 0x0 DUP1 REVERT JUMPDEST POP PUSH1 0x40 MLOAD PUSH3 0xE01 CODESIZE SUB DUP1 PUSH3 0xE01 DUP4 CODECOPY DUP2 ADD PUSH1 0x40 DUP2 SWAP1 MSTORE PUSH3 0x34 SWAP2 PUSH3 0x28C JUMP JUMPDEST CALLER DUP1 PUSH3 0x5B JUMPI PUSH1 0x40 MLOAD PUSH4 0x1E4FBDF7 PUSH1 0xE0 SHL DUP2 MSTORE PUSH1 0x0 PUSH1 0x4 DUP3 ADD MSTORE PUSH1 0x24 ADD PUSH1 0x40 MLOAD DUP1 SWAP2 SUB SWAP1 REVERT JUMPDEST PUSH3 0x66 DUP2 PUSH3 0x20C JUMP JUMPDEST POP PUSH1 0x1 PUSH1 0x1 PUSH1 0xA0 SHL SUB DUP7 AND ISZERO DUP1 PUSH3 0x85 JUMPI POP PUSH1 0x1 PUSH1 0x1 PUSH1 0xA0 SHL SUB DUP6 AND ISZERO JUMPDEST DUP1 PUSH3 0x98 JUMPI POP PUSH1 0x1 PUSH1 0x1 PUSH1 0xA0 SHL SUB DUP5 AND ISZERO JUMPDEST DUP1 PUSH3 0xAB JUMPI POP PUSH1 0x1 PUSH1 0x1 PUSH1 0xA0 SHL SUB DUP4 AND ISZERO JUMPDEST DUP1 PUSH3 0xBE JUMPI POP PUSH1 0x1 PUSH1 0x1 PUSH1 0xA0 SHL SUB DUP3 AND ISZERO JUMPDEST ISZERO PUSH3 0xDD JUMPI PUSH1 0x40 MLOAD PUSH4 0xD92E233D PUSH1 0xE0 SHL DUP2 MSTORE PUSH1 0x4 ADD PUSH1 0x40 MLOAD DUP1 SWAP2 SUB SWAP1 REVERT JUMPDEST DUP1 PUSH1 0x60 ADD MLOAD PUSH2 0xFFFF AND DUP2 PUSH1 0x40 ADD MLOAD PUSH2 0xFFFF AND DUP3 PUSH1 0x20 ADD MLOAD PUSH2 0xFFFF AND DUP4 PUSH1 0x0 ADD MLOAD PUSH2 0xFFFF AND PUSH3 0x10D SWAP2 SWAP1 PUSH3 0x395 JUMP JUMPDEST PUSH3 0x119 SWAP2 SWAP1 PUSH3 0x395 JUMP JUMPDEST PUSH3 0x125 SWAP2 SWAP1 PUSH3 0x395 JUMP JUMPDEST PUSH2 0x2710 EQ PUSH3 0x147 JUMPI PUSH1 0x40 MLOAD PUSH4 0x6EDCC523 PUSH1 0xE0 SHL DUP2 MSTORE PUSH1 0x4 ADD PUSH1 0x40 MLOAD DUP1 SWAP2 SUB SWAP1 REVERT JUMPDEST PUSH1 0x1 PUSH1 0x1 PUSH1 0xA0 SHL SUB SWAP6 DUP7 AND PUSH1 0x80 MSTORE PUSH1 0x1 DUP1 SLOAD SWAP6 DUP8 AND PUSH1 0x1 PUSH1 0x1 PUSH1 0xA0 SHL SUB NOT SWAP7 DUP8 AND OR SWAP1 SSTORE PUSH1 0x2 DUP1 SLOAD SWAP5 DUP8 AND SWAP5 DUP7 AND SWAP5 SWAP1 SWAP5 OR SWAP1 SWAP4 SSTORE PUSH1 0x3 DUP1 SLOAD SWAP3 DUP7 AND SWAP3 DUP6 AND SWAP3 SWAP1 SWAP3 OR SWAP1 SWAP2 SSTORE PUSH1 0x4 DUP1 SLOAD SWAP2 SWAP1 SWAP5 AND SWAP3 AND SWAP2 SWAP1 SWAP2 OR SWAP1 SWAP2 SSTORE DUP1 MLOAD PUSH1 0x5 DUP1 SLOAD PUSH1 0x20 DUP5 ADD MLOAD PUSH1 0x40 DUP6 ADD MLOAD PUSH1 0x60 SWAP1 SWAP6 ADD MLOAD PUSH2 0xFFFF SWAP1 DUP2 AND PUSH7 0x1000000000000 MUL PUSH2 0xFFFF PUSH1 0x30 SHL NOT SWAP7 DUP3 AND PUSH5 0x100000000 MUL SWAP7 SWAP1 SWAP7 AND PUSH4 0xFFFFFFFF PUSH1 0x20 SHL NOT SWAP3 DUP3 AND PUSH3 0x10000 MUL PUSH4 0xFFFFFFFF NOT SWAP1 SWAP5 AND SWAP2 SWAP1 SWAP6 AND OR SWAP2 SWAP1 SWAP2 OR AND SWAP2 SWAP1 SWAP2 OR SWAP2 SWAP1 SWAP2 OR SWAP1 SSTORE PUSH3 0x3BD JUMP JUMPDEST PUSH1 0x0 DUP1 SLOAD PUSH1 0x1 PUSH1 0x1 PUSH1 0xA0 SHL SUB DUP4 DUP2 AND PUSH1 0x1 PUSH1 0x1 PUSH1 0xA0 SHL SUB NOT DUP4 AND DUP2 OR DUP5 SSTORE PUSH1 0x40 MLOAD SWAP2 SWAP1 SWAP3 AND SWAP3 DUP4 SWAP2 PUSH32 0x8BE0079C531659141344CD1FD0A4F28419497F9722A3DAAFE3B4186F6B6457E0 SWAP2 SWAP1 LOG3 POP POP JUMP JUMPDEST DUP1 MLOAD PUSH1 0x1 PUSH1 0x1 PUSH1 0xA0 SHL SUB DUP2 AND DUP2 EQ PUSH3 0x274 JUMPI PUSH1 0x0 DUP1 REVERT JUMPDEST SWAP2 SWAP1 POP JUMP JUMPDEST DUP1 MLOAD PUSH2 0xFFFF DUP2 AND DUP2 EQ PUSH3 0x274 JUMPI PUSH1 0x0 DUP1 REVERT JUMPDEST PUSH1 0x0 DUP1 PUSH1 0x0 DUP1 PUSH1 0x0 DUP1 DUP7 DUP9 SUB PUSH2 0x120 DUP2 SLT ISZERO PUSH3 0x2A8 JUMPI PUSH1 0x0 DUP1 REVERT JUMPDEST PUSH3 0x2B3 DUP9 PUSH3 0x25C JUMP JUMPDEST SWAP7 POP PUSH3 0x2C3 PUSH1 0x20 DUP10 ADD PUSH3 0x25C JUMP JUMPDEST SWAP6 POP PUSH3 0x2D3 PUSH1 0x40 DUP10 ADD PUSH3 0x25C JUMP JUMPDEST SWAP5 POP PUSH3 0x2E3 PUSH1 0x60 DUP10 ADD PUSH3 0x25C JUMP JUMPDEST SWAP4 POP PUSH3 0x2F3 PUSH1 0x80 DUP10 ADD PUSH3 0x25C JUMP JUMPDEST SWAP3 POP PUSH1 0x80 PUSH1 0x9F NOT DUP3 ADD SLT ISZERO PUSH3 0x308 JUMPI PUSH1 0x0 DUP1 REVERT JUMPDEST POP PUSH1 0x40 MLOAD PUSH1 0x80 DUP2 ADD PUSH1 0x1 PUSH1 0x1 PUSH1 0x40 SHL SUB DUP2 GT DUP3 DUP3 LT OR ISZERO PUSH3 0x33A JUMPI PUSH4 0x4E487B71 PUSH1 0xE0 SHL PUSH1 0x0 MSTORE PUSH1 0x41 PUSH1 0x4 MSTORE PUSH1 0x24 PUSH1 0x0 REVERT JUMPDEST PUSH1 0x40 MSTORE PUSH3 0x34B PUSH1 0xA0 DUP10 ADD PUSH3 0x279 JUMP JUMPDEST DUP2 MSTORE PUSH3 0x35B PUSH1 0xC0 DUP10 ADD PUSH3 0x279 JUMP JUMPDEST PUSH1 0x20 DUP3 ADD MSTORE PUSH3 0x36E PUSH1 0xE0 DUP10 ADD PUSH3 0x279 JUMP JUMPDEST PUSH1 0x40 DUP3 ADD MSTORE PUSH3 0x382 PUSH2 0x100 DUP10 ADD PUSH3 0x279 JUMP JUMPDEST PUSH1 0x60 DUP3 ADD MSTORE DUP1 SWAP2 POP POP SWAP3 SWAP6 POP SWAP3 SWAP6 POP SWAP3 SWAP6 JUMP JUMPDEST DUP1 DUP3 ADD DUP1 DUP3 GT ISZERO PUSH3 0x3B7 JUMPI PUSH4 0x4E487B71 PUSH1 0xE0 SHL PUSH1 0x0 MSTORE PUSH1 0x11 PUSH1 0x4 MSTORE PUSH1 0x24 PUSH1 0x0 REVERT JUMPDEST SWAP3 SWAP2 POP POP JUMP JUMPDEST PUSH1 0x80 MLOAD PUSH2 0xA05 PUSH3 0x3FC PUSH1 0x0 CODECOPY PUSH1 0x0 DUP2 DUP2 PUSH2 0x14C ADD MSTORE DUP2 DUP2 PUSH2 0x2D5 ADD MSTORE DUP2 DUP2 PUSH2 0x454 ADD MSTORE DUP2 DUP2 PUSH2 0x4F3 ADD MSTORE DUP2 DUP2 PUSH2 0x594 ADD MSTORE PUSH2 0x638 ADD MSTORE PUSH2 0xA05 PUSH1 0x0 RETURN INVALID PUSH1 0x80 PUSH1 0x40 MSTORE CALLVALUE DUP1 ISZERO PUSH2 0x10 JUMPI PUSH1 0x0 DUP1 REVERT JUMPDEST POP PUSH1 0x4 CALLDATASIZE LT PUSH2 0xB4 JUMPI PUSH1 0x0 CALLDATALOAD PUSH1 0xE0 SHR DUP1 PUSH4 0x9A190DC9 GT PUSH2 0x71 JUMPI DUP1 PUSH4 0x9A190DC9 EQ PUSH2 0x19C JUMPI DUP1 PUSH4 0xE16FCA9F EQ PUSH2 0x1AF JUMPI DUP1 PUSH4 0xE4FC6B6D EQ PUSH2 0x1C2 JUMPI DUP1 PUSH4 0xE70ABE92 EQ PUSH2 0x1CA JUMPI DUP1 PUSH4 0xF2FDE38B EQ PUSH2 0x1DD JUMPI DUP1 PUSH4 0xFA117979 EQ PUSH2 0x1F0 JUMPI PUSH1 0x0 DUP1 REVERT JUMPDEST DUP1 PUSH4 0x3314EFA EQ PUSH2 0xB9 JUMPI DUP1 PUSH4 0x3959C298 EQ PUSH2 0x11C JUMPI DUP1 PUSH4 0x4EFA82B6 EQ PUSH2 0x147 JUMPI DUP1 PUSH4 0x715018A6 EQ PUSH2 0x16E JUMPI DUP1 PUSH4 0x89CF3204 EQ PUSH2 0x178 JUMPI DUP1 PUSH4 0x8DA5CB5B EQ PUSH2 0x18B JUMPI JUMPDEST PUSH1 0x0 DUP1 REVERT JUMPDEST PUSH1 0x5 SLOAD PUSH2 0xE9 SWAP1 PUSH2 0xFFFF DUP1 DUP3 AND SWAP2 PUSH3 0x10000 DUP2 DIV DUP3 AND SWAP2 PUSH5 0x100000000 DUP3 DIV DUP2 AND SWAP2 PUSH7 0x1000000000000 SWAP1 DIV AND DUP5 JUMP JUMPDEST PUSH1 0x40 DUP1 MLOAD PUSH2 0xFFFF SWAP6 DUP7 AND DUP2 MSTORE SWAP4 DUP6 AND PUSH1 0x20 DUP6 ADD MSTORE SWAP2 DUP5 AND SWAP2 DUP4 ADD SWAP2 SWAP1 SWAP2 MSTORE SWAP1 SWAP2 AND PUSH1 0x60 DUP3 ADD MSTORE PUSH1 0x80 ADD JUMPDEST PUSH1 0x40 MLOAD DUP1 SWAP2 SUB SWAP1 RETURN JUMPDEST PUSH1 0x1 SLOAD PUSH2 0x12F SWAP1 PUSH1 0x1 PUSH1 0x1 PUSH1 0xA0 SHL SUB AND DUP2 JUMP JUMPDEST PUSH1 0x40 MLOAD PUSH1 0x1 PUSH1 0x1 PUSH1 0xA0 SHL SUB SWAP1 SWAP2 AND DUP2 MSTORE PUSH1 0x20 ADD PUSH2 0x113 JUMP JUMPDEST PUSH2 0x12F PUSH32 0x0 DUP2 JUMP JUMPDEST PUSH2 0x176 PUSH2 0x203 JUMP JUMPDEST STOP JUMPDEST PUSH1 0x4 SLOAD PUSH2 0x12F SWAP1 PUSH1 0x1 PUSH1 0x1 PUSH1 0xA0 SHL SUB AND DUP2 JUMP JUMPDEST PUSH1 0x0 SLOAD PUSH1 0x1 PUSH1 0x1 PUSH1 0xA0 SHL SUB AND PUSH2 0x12F JUMP JUMPDEST PUSH2 0x176 PUSH2 0x1AA CALLDATASIZE PUSH1 0x4 PUSH2 0x7F4 JUMP JUMPDEST PUSH2 0x217 JUMP JUMPDEST PUSH1 0x2 SLOAD PUSH2 0x12F SWAP1 PUSH1 0x1 PUSH1 0x1 PUSH1 0xA0 SHL SUB AND DUP2 JUMP JUMPDEST PUSH2 0x176 PUSH2 0x2BD JUMP JUMPDEST PUSH1 0x3 SLOAD PUSH2 0x12F SWAP1 PUSH1 0x1 PUSH1 0x1 PUSH1 0xA0 SHL SUB AND DUP2 JUMP JUMPDEST PUSH2 0x176 PUSH2 0x1EB CALLDATASIZE PUSH1 0x4 PUSH2 0x80C JUMP JUMPDEST PUSH2 0x6E8 JUMP JUMPDEST PUSH2 0x176 PUSH2 0x1FE CALLDATASIZE PUSH1 0x4 PUSH2 0x80C JUMP JUMPDEST PUSH2 0x726 JUMP JUMPDEST PUSH2 0x20B PUSH2 0x777 JUMP JUMPDEST PUSH2 0x215 PUSH1 0x0 PUSH2 0x7A4 JUMP JUMPDEST JUMP JUMPDEST PUSH2 0x21F PUSH2 0x777 JUMP JUMPDEST PUSH2 0x22F PUSH1 0x80 DUP3 ADD PUSH1 0x60 DUP4 ADD PUSH2 0x84C JUMP JUMPDEST PUSH2 0xFFFF AND PUSH2 0x243 PUSH1 0x60 DUP4 ADD PUSH1 0x40 DUP5 ADD PUSH2 0x84C JUMP JUMPDEST PUSH2 0xFFFF AND PUSH2 0x257 PUSH1 0x40 DUP5 ADD PUSH1 0x20 DUP6 ADD PUSH2 0x84C JUMP JUMPDEST PUSH2 0xFFFF AND PUSH2 0x268 PUSH1 0x20 DUP6 ADD DUP6 PUSH2 0x84C JUMP JUMPDEST PUSH2 0xFFFF AND PUSH2 0x276 SWAP2 SWAP1 PUSH2 0x87F JUMP JUMPDEST PUSH2 0x280 SWAP2 SWAP1 PUSH2 0x87F JUMP JUMPDEST PUSH2 0x28A SWAP2 SWAP1 PUSH2 0x87F JUMP JUMPDEST PUSH2 0x2710 EQ PUSH2 0x2AB JUMPI PUSH1 0x40 MLOAD PUSH4 0x6EDCC523 PUSH1 0xE0 SHL DUP2 MSTORE PUSH1 0x4 ADD PUSH1 0x40 MLOAD DUP1 SWAP2 SUB SWAP1 REVERT JUMPDEST DUP1 PUSH1 0x5 PUSH2 0x2B8 DUP3 DUP3 PUSH2 0x898 JUMP JUMPDEST POP POP POP JUMP JUMPDEST PUSH1 0x40 MLOAD PUSH4 0x70A08231 PUSH1 0xE0 SHL DUP2 MSTORE ADDRESS PUSH1 0x4 DUP3 ADD MSTORE PUSH1 0x0 SWAP1 PUSH32 0x0 PUSH1 0x1 PUSH1 0x1 PUSH1 0xA0 SHL SUB AND SWAP1 PUSH4 0x70A08231 SWAP1 PUSH1 0x24 ADD PUSH1 0x20 PUSH1 0x40 MLOAD DUP1 DUP4 SUB DUP2 DUP7 GAS STATICCALL ISZERO DUP1 ISZERO PUSH2 0x324 JUMPI RETURNDATASIZE PUSH1 0x0 DUP1 RETURNDATACOPY RETURNDATASIZE PUSH1 0x0 REVERT JUMPDEST POP POP POP POP PUSH1 0x40 MLOAD RETURNDATASIZE PUSH1 0x1F NOT PUSH1 0x1F DUP3 ADD AND DUP3 ADD DUP1 PUSH1 0x40 MSTORE POP DUP2 ADD SWAP1 PUSH2 0x348 SWAP2 SWAP1 PUSH2 0x948 JUMP JUMPDEST SWAP1 POP PUSH1 0x0 DUP2 GT PUSH2 0x38A JUMPI PUSH1 0x40 MLOAD PUSH3 0x461BCD PUSH1 0xE5 SHL DUP2 MSTORE PUSH1 0x20 PUSH1 0x4 DUP3 ADD MSTORE PUSH1 0x8 PUSH1 0x24 DUP3 ADD MSTORE PUSH8 0x4E6F2066756E6473 PUSH1 0xC0 SHL PUSH1 0x44 DUP3 ADD MSTORE PUSH1 0x64 ADD JUMPDEST PUSH1 0x40 MLOAD DUP1 SWAP2 SUB SWAP1 REVERT JUMPDEST PUSH1 0x5 SLOAD PUSH1 0x0 SWAP1 PUSH2 0x2710 SWAP1 PUSH2 0x3A2 SWAP1 PUSH2 0xFFFF AND DUP5 PUSH2 0x961 JUMP JUMPDEST PUSH2 0x3AC SWAP2 SWAP1 PUSH2 0x978 JUMP JUMPDEST PUSH1 0x5 SLOAD SWAP1 SWAP2 POP PUSH1 0x0 SWAP1 PUSH2 0x2710 SWAP1 PUSH2 0x3CD SWAP1 PUSH3 0x10000 SWAP1 DIV PUSH2 0xFFFF AND DUP6 PUSH2 0x961 JUMP JUMPDEST PUSH2 0x3D7 SWAP2 SWAP1 PUSH2 0x978 JUMP JUMPDEST PUSH1 0x5 SLOAD SWAP1 SWAP2 POP PUSH1 0x0 SWAP1 PUSH2 0x2710 SWAP1 PUSH2 0x3FA SWAP1 PUSH5 0x100000000 SWAP1 DIV PUSH2 0xFFFF AND DUP7 PUSH2 0x961 JUMP JUMPDEST PUSH2 0x404 SWAP2 SWAP1 PUSH2 0x978 JUMP JUMPDEST SWAP1 POP PUSH1 0x0 DUP2 DUP4 PUSH2 0x414 DUP7 DUP9 PUSH2 0x99A JUMP JUMPDEST PUSH2 0x41E SWAP2 SWAP1 PUSH2 0x99A JUMP JUMPDEST PUSH2 0x428 SWAP2 SWAP1 PUSH2 0x99A JUMP JUMPDEST PUSH1 0x1 SLOAD PUSH1 0x40 MLOAD PUSH4 0xA9059CBB PUSH1 0xE0 SHL DUP2 MSTORE PUSH1 0x1 PUSH1 0x1 PUSH1 0xA0 SHL SUB SWAP2 DUP3 AND PUSH1 0x4 DUP3 ADD MSTORE PUSH1 0x24 DUP2 ADD DUP8 SWAP1 MSTORE SWAP2 SWAP3 POP PUSH32 0x0 AND SWAP1 PUSH4 0xA9059CBB SWAP1 PUSH1 0x44 ADD PUSH1 0x20 PUSH1 0x40 MLOAD DUP1 DUP4 SUB DUP2 PUSH1 0x0 DUP8 GAS CALL ISZERO DUP1 ISZERO PUSH2 0x49D JUMPI RETURNDATASIZE PUSH1 0x0 DUP1 RETURNDATACOPY RETURNDATASIZE PUSH1 0x0 REVERT JUMPDEST POP POP POP POP PUSH1 0x40 MLOAD RETURNDATASIZE PUSH1 0x1F NOT PUSH1 0x1F DUP3 ADD AND DUP3 ADD DUP1 PUSH1 0x40 MSTORE POP DUP2 ADD SWAP1 PUSH2 0x4C1 SWAP2 SWAP1 PUSH2 0x9AD JUMP JUMPDEST PUSH2 0x4CA JUMPI PUSH1 0x0 DUP1 REVERT JUMPDEST PUSH1 0x2 SLOAD PUSH1 0x40 MLOAD PUSH4 0xA9059CBB PUSH1 0xE0 SHL DUP2 MSTORE PUSH1 0x1 PUSH1 0x1 PUSH1 0xA0 SHL SUB SWAP2 DUP3 AND PUSH1 0x4 DUP3 ADD MSTORE PUSH1 0x24 DUP2 ADD DUP6 SWAP1 MSTORE PUSH32 0x0 SWAP1 SWAP2 AND SWAP1 PUSH4 0xA9059CBB SWAP1 PUSH1 0x44 ADD PUSH1 0x20 PUSH1 0x40 MLOAD DUP1 DUP4 SUB DUP2 PUSH1 0x0 DUP8 GAS CALL ISZERO DUP1 ISZERO PUSH2 0x53E JUMPI RETURNDATASIZE PUSH1 0x0 DUP1 RETURNDATACOPY RETURNDATASIZE PUSH1 0x0 REVERT JUMPDEST POP POP POP POP PUSH1 0x40 MLOAD RETURNDATASIZE PUSH1 0x1F NOT PUSH1 0x1F DUP3 ADD AND DUP3 ADD DUP1 PUSH1 0x40 MSTORE POP DUP2 ADD SWAP1 PUSH2 0x562 SWAP2 SWAP1 PUSH2 0x9AD JUMP JUMPDEST PUSH2 0x56B JUMPI PUSH1 0x0 DUP1 REVERT JUMPDEST PUSH1 0x3 SLOAD PUSH1 0x40 MLOAD PUSH4 0xA9059CBB PUSH1 0xE0 SHL DUP2 MSTORE PUSH1 0x1 PUSH1 0x1 PUSH1 0xA0 SHL SUB SWAP2 DUP3 AND PUSH1 0x4 DUP3 ADD MSTORE PUSH1 0x24 DUP2 ADD DUP5 SWAP1 MSTORE PUSH32 0x0 SWAP1 SWAP2 AND SWAP1 PUSH4 0xA9059CBB SWAP1 PUSH1 0x44 ADD PUSH1 0x20 PUSH1 0x40 MLOAD DUP1 DUP4 SUB DUP2 PUSH1 0x0 DUP8 GAS CALL ISZERO DUP1 ISZERO PUSH2 0x5DF JUMPI RETURNDATASIZE PUSH1 0x0 DUP1 RETURNDATACOPY RETURNDATASIZE PUSH1 0x0 REVERT JUMPDEST POP POP POP POP PUSH1 0x40 MLOAD RETURNDATASIZE PUSH1 0x1F NOT PUSH1 0x1F DUP3 ADD AND DUP3 ADD DUP1 PUSH1 0x40 MSTORE POP DUP2 ADD SWAP1 PUSH2 0x603 SWAP2 SWAP1 PUSH2 0x9AD JUMP JUMPDEST PUSH2 0x60C JUMPI PUSH1 0x0 DUP1 REVERT JUMPDEST PUSH1 0x4 DUP1 SLOAD PUSH1 0x40 MLOAD PUSH4 0xA9059CBB PUSH1 0xE0 SHL DUP2 MSTORE PUSH1 0x1 PUSH1 0x1 PUSH1 0xA0 SHL SUB SWAP2 DUP3 AND SWAP3 DUP2 ADD SWAP3 SWAP1 SWAP3 MSTORE PUSH1 0x24 DUP3 ADD DUP4 SWAP1 MSTORE PUSH32 0x0 AND SWAP1 PUSH4 0xA9059CBB SWAP1 PUSH1 0x44 ADD PUSH1 0x20 PUSH1 0x40 MLOAD DUP1 DUP4 SUB DUP2 PUSH1 0x0 DUP8 GAS CALL ISZERO DUP1 ISZERO PUSH2 0x681 JUMPI RETURNDATASIZE PUSH1 0x0 DUP1 RETURNDATACOPY RETURNDATASIZE PUSH1 0x0 REVERT JUMPDEST POP POP POP POP PUSH1 0x40 MLOAD RETURNDATASIZE PUSH1 0x1F NOT PUSH1 0x1F DUP3 ADD AND DUP3 ADD DUP1 PUSH1 0x40 MSTORE POP DUP2 ADD SWAP1 PUSH2 0x6A5 SWAP2 SWAP1 PUSH2 0x9AD JUMP JUMPDEST PUSH2 0x6AE JUMPI PUSH1 0x0 DUP1 REVERT JUMPDEST PUSH1 0x40 MLOAD DUP6 DUP2 MSTORE PUSH32 0xDDC9C30275A04C48091F24199F9C405765DE34D979D6847F5B9798A57232D2E5 SWAP1 PUSH1 0x20 ADD PUSH1 0x40 MLOAD DUP1 SWAP2 SUB SWAP1 LOG1 POP POP POP POP POP JUMP JUMPDEST PUSH2 0x6F0 PUSH2 0x777 JUMP JUMPDEST PUSH1 0x1 PUSH1 0x1 PUSH1 0xA0 SHL SUB DUP2 AND PUSH2 0x71A JUMPI PUSH1 0x40 MLOAD PUSH4 0x1E4FBDF7 PUSH1 0xE0 SHL DUP2 MSTORE PUSH1 0x0 PUSH1 0x4 DUP3 ADD MSTORE PUSH1 0x24 ADD PUSH2 0x381 JUMP JUMPDEST PUSH2 0x723 DUP2 PUSH2 0x7A4 JUMP JUMPDEST POP JUMP JUMPDEST PUSH2 0x72E PUSH2 0x777 JUMP JUMPDEST PUSH1 0x1 PUSH1 0x1 PUSH1 0xA0 SHL SUB DUP2 AND PUSH2 0x755 JUMPI PUSH1 0x40 MLOAD PUSH4 0xD92E233D PUSH1 0xE0 SHL DUP2 MSTORE PUSH1 0x4 ADD PUSH1 0x40 MLOAD DUP1 SWAP2 SUB SWAP1 REVERT JUMPDEST PUSH1 0x1 DUP1 SLOAD PUSH1 0x1 PUSH1 0x1 PUSH1 0xA0 SHL SUB NOT AND PUSH1 0x1 PUSH1 0x1 PUSH1 0xA0 SHL SUB SWAP3 SWAP1 SWAP3 AND SWAP2 SWAP1 SWAP2 OR SWAP1 SSTORE JUMP JUMPDEST PUSH1 0x0 SLOAD PUSH1 0x1 PUSH1 0x1 PUSH1 0xA0 SHL SUB AND CALLER EQ PUSH2 0x215 JUMPI PUSH1 0x40 MLOAD PUSH4 0x118CDAA7 PUSH1 0xE0 SHL DUP2 MSTORE CALLER PUSH1 0x4 DUP3 ADD MSTORE PUSH1 0x24 ADD PUSH2 0x381 JUMP JUMPDEST PUSH1 0x0 DUP1 SLOAD PUSH1 0x1 PUSH1 0x1 PUSH1 0xA0 SHL SUB DUP4 DUP2 AND PUSH1 0x1 PUSH1 0x1 PUSH1 0xA0 SHL SUB NOT DUP4 AND DUP2 OR DUP5 SSTORE PUSH1 0x40 MLOAD SWAP2 SWAP1 SWAP3 AND SWAP3 DUP4 SWAP2 PUSH32 0x8BE0079C531659141344CD1FD0A4F28419497F9722A3DAAFE3B4186F6B6457E0 SWAP2 SWAP1 LOG3 POP POP JUMP JUMPDEST PUSH1 0x0 PUSH1 0x80 DUP3 DUP5 SUB SLT ISZERO PUSH2 0x806 JUMPI PUSH1 0x0 DUP1 REVERT JUMPDEST POP SWAP2 SWAP1 POP JUMP JUMPDEST PUSH1 0x0 PUSH1 0x20 DUP3 DUP5 SUB SLT ISZERO PUSH2 0x81E JUMPI PUSH1 0x0 DUP1 REVERT JUMPDEST DUP2 CALLDATALOAD PUSH1 0x1 PUSH1 0x1 PUSH1 0xA0 SHL SUB DUP2 AND DUP2 EQ PUSH2 0x835 JUMPI PUSH1 0x0 DUP1 REVERT JUMPDEST SWAP4 SWAP3 POP POP POP JUMP JUMPDEST PUSH2 0xFFFF DUP2 AND DUP2 EQ PUSH2 0x723 JUMPI PUSH1 0x0 DUP1 REVERT JUMPDEST PUSH1 0x0 PUSH1 0x20 DUP3 DUP5 SUB SLT ISZERO PUSH2 0x85E JUMPI PUSH1 0x0 DUP1 REVERT JUMPDEST DUP2 CALLDATALOAD PUSH2 0x835 DUP2 PUSH2 0x83C JUMP JUMPDEST PUSH4 0x4E487B71 PUSH1 0xE0 SHL PUSH1 0x0 MSTORE PUSH1 0x11 PUSH1 0x4 MSTORE PUSH1 0x24 PUSH1 0x0 REVERT JUMPDEST DUP1 DUP3 ADD DUP1 DUP3 GT ISZERO PUSH2 0x892 JUMPI PUSH2 0x892 PUSH2 0x869 JUMP JUMPDEST SWAP3 SWAP2 POP POP JUMP JUMPDEST DUP2 CALLDATALOAD PUSH2 0x8A3 DUP2 PUSH2 0x83C JUMP JUMPDEST PUSH2 0xFFFF DUP2 AND SWAP1 POP DUP2 SLOAD DUP2 PUSH2 0xFFFF NOT DUP3 AND OR DUP4 SSTORE PUSH1 0x20 DUP5 ADD CALLDATALOAD PUSH2 0x8C4 DUP2 PUSH2 0x83C JUMP JUMPDEST PUSH4 0xFFFF0000 DUP2 PUSH1 0x10 SHL AND SWAP1 POP DUP1 DUP4 PUSH4 0xFFFFFFFF NOT DUP5 AND OR OR DUP5 SSTORE PUSH1 0x40 DUP6 ADD CALLDATALOAD PUSH2 0x8EC DUP2 PUSH2 0x83C JUMP JUMPDEST PUSH6 0xFFFF00000000 DUP2 PUSH1 0x20 SHL AND SWAP1 POP DUP4 PUSH6 0xFFFFFFFFFFFF NOT DUP5 AND OR SWAP4 POP DUP1 DUP5 DUP4 OR OR DUP6 SSTORE PUSH1 0x60 DUP7 ADD CALLDATALOAD SWAP3 POP PUSH2 0x91F DUP4 PUSH2 0x83C JUMP JUMPDEST PUSH8 0xFFFF000000000000 NOT SWAP4 SWAP1 SWAP4 AND OR SWAP2 SWAP1 SWAP2 OR PUSH1 0x30 SWAP2 SWAP1 SWAP2 SHL PUSH8 0xFFFF000000000000 AND OR SWAP1 SSTORE POP JUMP JUMPDEST PUSH1 0x0 PUSH1 0x20 DUP3 DUP5 SUB SLT ISZERO PUSH2 0x95A JUMPI PUSH1 0x0 DUP1 REVERT JUMPDEST POP MLOAD SWAP2 SWAP1 POP JUMP JUMPDEST DUP1 DUP3 MUL DUP2 ISZERO DUP3 DUP3 DIV DUP5 EQ OR PUSH2 0x892 JUMPI PUSH2 0x892 PUSH2 0x869 JUMP JUMPDEST PUSH1 0x0 DUP3 PUSH2 0x995 JUMPI PUSH4 0x4E487B71 PUSH1 0xE0 SHL PUSH1 0x0 MSTORE PUSH1 0x12 PUSH1 0x4 MSTORE PUSH1 0x24 PUSH1 0x0 REVERT JUMPDEST POP DIV SWAP1 JUMP JUMPDEST DUP2 DUP2 SUB DUP2 DUP2 GT ISZERO PUSH2 0x892 JUMPI PUSH2 0x892 PUSH2 0x869 JUMP JUMPDEST PUSH1 0x0 PUSH1 0x20 DUP3 DUP5 SUB SLT ISZERO PUSH2 0x9BF JUMPI PUSH1 0x0 DUP1 REVERT JUMPDEST DUP2 MLOAD DUP1 ISZERO ISZERO DUP2 EQ PUSH2 0x835 JUMPI PUSH1 0x0 DUP1 REVERT INVALID LOG2 PUSH5 0x6970667358 0x22 SLT KECCAK256 RETURNDATASIZE MLOAD ORIGIN 0xC7 0x1E SUB PUSH1 0x7F 0xBA 0xC9 0x25 0x23 PUSH1 0xA LOG1 0x23 SWAP13 0xA9 MSTORE PUSH25 0x2AAC3AA4527F56137D6D0D1364736F6C634300081800330000 "},"methodIdentifiers":{"distribute()":"e4fc6b6d","forestMgmt()":"e16fca9f","insurance()":"89cf3204","ops()":"e70abe92","owner()":"8da5cb5b","payoutToken()":"4efa82b6","renounceOwnership()":"715018a6","setShares((uint16,uint16,uint16,uint16))":"9a190dc9","setTstDistributor(address)":"fa117979","shares()":"03314efa","transferOwnership(address)":"f2fde38b","tstDistributor()":"3959c298"}}}}}