{
  "_format": "hh-sol-artifact-1",
  "contractName": "Treasury",
  "sourceName": "contracts/Treasury.sol",
  "abi": [
    {
      "inputs": [
        {
          "internalType": "address",
          "name": "_payoutToken",
          "type": "address"
        },
        {
          "internalType": "address",
          "name": "_tstDistributor",
          "type": "address"
        },
        {
          "internalType": "address",
          "name": "_forestMgmt",
          "type": "address"
        },
        {
          "internalType": "address",
          "name": "_ops",
          "type": "address"
        },
        {
          "internalType": "address",
          "name": "_insurance",
          "type": "address"
        },
        {
          "components": [
            {
              "internalType": "uint16",
              "name": "toTSTHoldersBps",
              "type": "uint16"
            },
            {
              "internalType": "uint16",
              "name": "toForestMgmtBps",
              "type": "uint16"
            },
            {
              "internalType": "uint16",
              "name": "toOpsBps",
              "type": "uint16"
            },
            {
              "internalType": "uint16",
              "name": "toInsuranceBps",
              "type": "uint16"
            }
          ],
          "internalType": "struct Treasury.Shares",
          "name": "_shares",
          "type": "tuple"
        }
      ],
      "stateMutability": "nonpayable",
      "type": "constructor"
    },
    {
      "inputs": [],
      "name": "InvalidShares",
      "type": "error"
    },
    {
      "inputs": [
        {
          "internalType": "address",
          "name": "owner",
          "type": "address"
        }
      ],
      "name": "OwnableInvalidOwner",
      "type": "error"
    },
    {
      "inputs": [
        {
          "internalType": "address",
          "name": "account",
          "type": "address"
        }
      ],
      "name": "OwnableUnauthorizedAccount",
      "type": "error"
    },
    {
      "inputs": [],
      "name": "ZeroAddress",
      "type": "error"
    },
    {
      "anonymous": false,
      "inputs": [
        {
          "indexed": false,
          "internalType": "uint256",
          "name": "amount",
          "type": "uint256"
        }
      ],
      "name": "Distributed",
      "type": "event"
    },
    {
      "anonymous": false,
      "inputs": [
        {
          "indexed": true,
          "internalType": "address",
          "name": "previousOwner",
          "type": "address"
        },
        {
          "indexed": true,
          "internalType": "address",
          "name": "newOwner",
          "type": "address"
        }
      ],
      "name": "OwnershipTransferred",
      "type": "event"
    },
    {
      "inputs": [],
      "name": "distribute",
      "outputs": [],
      "stateMutability": "nonpayable",
      "type": "function"
    },
    {
      "inputs": [],
      "name": "forestMgmt",
      "outputs": [
        {
          "internalType": "address",
          "name": "",
          "type": "address"
        }
      ],
      "stateMutability": "view",
      "type": "function"
    },
    {
      "inputs": [],
      "name": "insurance",
      "outputs": [
        {
          "internalType": "address",
          "name": "",
          "type": "address"
        }
      ],
      "stateMutability": "view",
      "type": "function"
    },
    {
      "inputs": [],
      "name": "ops",
      "outputs": [
        {
          "internalType": "address",
          "name": "",
          "type": "address"
        }
      ],
      "stateMutability": "view",
      "type": "function"
    },
    {
      "inputs": [],
      "name": "owner",
      "outputs": [
        {
          "internalType": "address",
          "name": "",
          "type": "address"
        }
      ],
      "stateMutability": "view",
      "type": "function"
    },
    {
      "inputs": [],
      "name": "payoutToken",
      "outputs": [
        {
          "internalType": "contract IERC20",
          "name": "",
          "type": "address"
        }
      ],
      "stateMutability": "view",
      "type": "function"
    },
    {
      "inputs": [],
      "name": "renounceOwnership",
      "outputs": [],
      "stateMutability": "nonpayable",
      "type": "function"
    },
    {
      "inputs": [
        {
          "components": [
            {
              "internalType": "uint16",
              "name": "toTSTHoldersBps",
              "type": "uint16"
            },
            {
              "internalType": "uint16",
              "name": "toForestMgmtBps",
              "type": "uint16"
            },
            {
              "internalType": "uint16",
              "name": "toOpsBps",
              "type": "uint16"
            },
            {
              "internalType": "uint16",
              "name": "toInsuranceBps",
              "type": "uint16"
            }
          ],
          "internalType": "struct Treasury.Shares",
          "name": "s",
          "type": "tuple"
        }
      ],
      "name": "setShares",
      "outputs": [],
      "stateMutability": "nonpayable",
      "type": "function"
    },
    {
      "inputs": [
        {
          "internalType": "address",
          "name": "_d",
          "type": "address"
        }
      ],
      "name": "setTstDistributor",
      "outputs": [],
      "stateMutability": "nonpayable",
      "type": "function"
    },
    {
      "inputs": [],
      "name": "shares",
      "outputs": [
        {
          "internalType": "uint16",
          "name": "toTSTHoldersBps",
          "type": "uint16"
        },
        {
          "internalType": "uint16",
          "name": "toForestMgmtBps",
          "type": "uint16"
        },
        {
          "internalType": "uint16",
          "name": "toOpsBps",
          "type": "uint16"
        },
        {
          "internalType": "uint16",
          "name": "toInsuranceBps",
          "type": "uint16"
        }
      ],
      "stateMutability": "view",
      "type": "function"
    },
    {
      "inputs": [
        {
          "internalType": "address",
          "name": "newOwner",
          "type": "address"
        }
      ],
      "name": "transferOwnership",
      "outputs": [],
      "stateMutability": "nonpayable",
      "type": "function"
    },
    {
      "inputs": [],
      "name": "tstDistributor",
      "outputs": [
        {
          "internalType": "address",
          "name": "",
          "type": "address"
        }
      ],
      "stateMutability": "view",
      "type": "function"
    }
  ],
  "bytecode": "0x60a06040523480156200001157600080fd5b5060405162000e0138038062000e0183398101604081905262000034916200028c565b33806200005b57604051631e4fbdf760e01b81526000600482015260240160405180910390fd5b62000066816200020c565b506001600160a01b03861615806200008557506001600160a01b038516155b806200009857506001600160a01b038416155b80620000ab57506001600160a01b038316155b80620000be57506001600160a01b038216155b15620000dd5760405163d92e233d60e01b815260040160405180910390fd5b806060015161ffff16816040015161ffff16826020015161ffff16836000015161ffff166200010d919062000395565b62000119919062000395565b62000125919062000395565b612710146200014757604051636edcc52360e01b815260040160405180910390fd5b6001600160a01b03958616608052600180549587166001600160a01b03199687161790556002805494871694861694909417909355600380549286169285169290921790915560048054919094169216919091179091558051600580546020840151604085015160609095015161ffff90811666010000000000000261ffff60301b19968216640100000000029690961663ffffffff60201b19928216620100000263ffffffff199094169190951617919091171691909117919091179055620003bd565b600080546001600160a01b038381166001600160a01b0319831681178455604051919092169283917f8be0079c531659141344cd1fd0a4f28419497f9722a3daafe3b4186f6b6457e09190a35050565b80516001600160a01b03811681146200027457600080fd5b919050565b805161ffff811681146200027457600080fd5b600080600080600080868803610120811215620002a857600080fd5b620002b3886200025c565b9650620002c3602089016200025c565b9550620002d3604089016200025c565b9450620002e3606089016200025c565b9350620002f3608089016200025c565b92506080609f19820112156200030857600080fd5b50604051608081016001600160401b03811182821017156200033a57634e487b7160e01b600052604160045260246000fd5b6040526200034b60a0890162000279565b81526200035b60c0890162000279565b60208201526200036e60e0890162000279565b604082015262000382610100890162000279565b6060820152809150509295509295509295565b80820180821115620003b757634e487b7160e01b600052601160045260246000fd5b92915050565b608051610a05620003fc6000396000818161014c015281816102d501528181610454015281816104f30152818161059401526106380152610a056000f3fe608060405234801561001057600080fd5b50600436106100b45760003560e01c80639a190dc9116100715780639a190dc91461019c578063e16fca9f146101af578063e4fc6b6d146101c2578063e70abe92146101ca578063f2fde38b146101dd578063fa117979146101f057600080fd5b806303314efa146100b95780633959c2981461011c5780634efa82b614610147578063715018a61461016e57806389cf3204146101785780638da5cb5b1461018b575b600080fd5b6005546100e99061ffff808216916201000081048216916401000000008204811691660100000000000090041684565b6040805161ffff958616815293851660208501529184169183019190915290911660608201526080015b60405180910390f35b60015461012f906001600160a01b031681565b6040516001600160a01b039091168152602001610113565b61012f7f000000000000000000000000000000000000000000000000000000000000000081565b610176610203565b005b60045461012f906001600160a01b031681565b6000546001600160a01b031661012f565b6101766101aa3660046107f4565b610217565b60025461012f906001600160a01b031681565b6101766102bd565b60035461012f906001600160a01b031681565b6101766101eb36600461080c565b6106e8565b6101766101fe36600461080c565b610726565b61020b610777565b61021560006107a4565b565b61021f610777565b61022f608082016060830161084c565b61ffff16610243606083016040840161084c565b61ffff16610257604084016020850161084c565b61ffff16610268602085018561084c565b61ffff16610276919061087f565b610280919061087f565b61028a919061087f565b612710146102ab57604051636edcc52360e01b815260040160405180910390fd5b8060056102b88282610898565b505050565b6040516370a0823160e01b81523060048201526000907f00000000000000000000000000000000000000000000000000000000000000006001600160a01b0316906370a0823190602401602060405180830381865afa158015610324573d6000803e3d6000fd5b505050506040513d601f19601f820116820180604052508101906103489190610948565b90506000811161038a5760405162461bcd60e51b81526020600482015260086024820152674e6f2066756e647360c01b60448201526064015b60405180910390fd5b600554600090612710906103a29061ffff1684610961565b6103ac9190610978565b600554909150600090612710906103cd9062010000900461ffff1685610961565b6103d79190610978565b600554909150600090612710906103fa90640100000000900461ffff1686610961565b6104049190610978565b905060008183610414868861099a565b61041e919061099a565b610428919061099a565b60015460405163a9059cbb60e01b81526001600160a01b039182166004820152602481018790529192507f0000000000000000000000000000000000000000000000000000000000000000169063a9059cbb906044016020604051808303816000875af115801561049d573d6000803e3d6000fd5b505050506040513d601f19601f820116820180604052508101906104c191906109ad565b6104ca57600080fd5b60025460405163a9059cbb60e01b81526001600160a01b039182166004820152602481018590527f00000000000000000000000000000000000000000000000000000000000000009091169063a9059cbb906044016020604051808303816000875af115801561053e573d6000803e3d6000fd5b505050506040513d601f19601f8201168201806040525081019061056291906109ad565b61056b57600080fd5b60035460405163a9059cbb60e01b81526001600160a01b039182166004820152602481018490527f00000000000000000000000000000000000000000000000000000000000000009091169063a9059cbb906044016020604051808303816000875af11580156105df573d6000803e3d6000fd5b505050506040513d601f19601f8201168201806040525081019061060391906109ad565b61060c57600080fd5b6004805460405163a9059cbb60e01b81526001600160a01b0391821692810192909252602482018390527f0000000000000000000000000000000000000000000000000000000000000000169063a9059cbb906044016020604051808303816000875af1158015610681573d6000803e3d6000fd5b505050506040513d601f19601f820116820180604052508101906106a591906109ad565b6106ae57600080fd5b6040518581527fddc9c30275a04c48091f24199f9c405765de34d979d6847f5b9798a57232d2e59060200160405180910390a15050505050565b6106f0610777565b6001600160a01b03811661071a57604051631e4fbdf760e01b815260006004820152602401610381565b610723816107a4565b50565b61072e610777565b6001600160a01b0381166107555760405163d92e233d60e01b815260040160405180910390fd5b600180546001600160a01b0319166001600160a01b0392909216919091179055565b6000546001600160a01b031633146102155760405163118cdaa760e01b8152336004820152602401610381565b600080546001600160a01b038381166001600160a01b0319831681178455604051919092169283917f8be0079c531659141344cd1fd0a4f28419497f9722a3daafe3b4186f6b6457e09190a35050565b60006080828403121561080657600080fd5b50919050565b60006020828403121561081e57600080fd5b81356001600160a01b038116811461083557600080fd5b9392505050565b61ffff8116811461072357600080fd5b60006020828403121561085e57600080fd5b81356108358161083c565b634e487b7160e01b600052601160045260246000fd5b8082018082111561089257610892610869565b92915050565b81356108a38161083c565b61ffff8116905081548161ffff19821617835560208401356108c48161083c565b63ffff00008160101b169050808363ffffffff1984161717845560408501356108ec8161083c565b65ffff000000008160201b1690508365ffffffffffff198416179350808483171785556060860135925061091f8361083c565b67ffff0000000000001993909316179190911760309190911b67ffff0000000000001617905550565b60006020828403121561095a57600080fd5b5051919050565b808202811582820484141761089257610892610869565b60008261099557634e487b7160e01b600052601260045260246000fd5b500490565b8181038181111561089257610892610869565b6000602082840312156109bf57600080fd5b8151801515811461083557600080fdfea26469706673582212203d5132c71e03607fbac92523600aa1239ca952782aac3aa4527f56137d6d0d1364736f6c63430008180033",
  "linkReferences": {},
  "deployedLinkReferences": {}
}